:20002E0075814274FDF5231223467403F523121F391215AC12167D1216CA801273746172C7
:20004E0074207465737420656E67696E650075314A7532001222AD1213438011646F776E7F
:20006E00206C6F616420612066696C650075316A7532001222AD901015E0FAA3E0FB90112B
:20008E000DEAF0A3EBF0121D5090110CE0900000F080067263203D20007531A17532001289
:2000AE0022EA900000E0F5311220C5121EC980076C656E203D20007531BE7532001222EA34
:2000CE00900002E0FAA3E0FB8A388B39122161121EC97458F538901015E0FAA3E0FB8A394C
:2000EE008B3A740AF53B121F3E7403F523121F3980067374617274007531007532011222E1
:20010E00AD800A7072657373206B6579007531117532011222AD12206DE52A900001F07421
:20012E0001900001F07A417B0090108AEAF0A3EBF07AD27B0490108CEAF0A3EBF07A387BFB
:20014E000090108EEAF0A3EBF01212DB901089E0900000F0900001E0C394016008900001C1
:20016E00E004F080C07403F523121F39800673746F70210075317C7532011222AD121EC656
:0300000002002ECD
:20018E00740090100FF09010107400F0A37400F07400901017F022740190100FF0740090CE
:2001AE001018F0221201A5901018E0901019F022901010E0FAA3E0FBC3EA9400EB941050B4
:2001CE002D90101BE0FC901010E0FAA3E0FBEA240BF582EB3400F583ECF0901010E004F0BE
:2001EE007004A3E004F0740090101AF08006740C90101AF02290101DE0FAA3E0FB90101051
:20020E00EAF0A3EBF022800E4D41524320656E67696E653A20007531167532021222EA90A2
:20022E00101FE0B4001E8010737461636B20756E646572666C6F770075313675320212227A
:20024E00EA0202F6B4011D800F737461636B206F766572666C6F77007531577532021222C7
:20026E00EA0202F6B40231802473686F756C64206E6F74206F6363757220286275742064AE
:20028E00696420207465652068656529007531777532021222EA8050B40317800A756E6437
:2002AE006566696E6564007531AB7532021222EA8036B40420801362616420496E74656C49
:2002CE00204865782064617461007531C57532021222EA80138008756E6B6E6F776E00753F
:2002EE0031E57532021222EA740CF5311220C5121EC9121EC62290104BE05480C3940070FF
:20030E003490104BE0FC7D0090104AE0FA7B00C3EA33FAEB33FBEA2400F582EB34A0F58369
:20032E00E0FAA3E0FBEA2CFAEB3DFB901048EAF0A3EBF0803B90104BE0F42401F090104B6A
:20034E00E0FC7D0090104AE0FA7B00C3EA33FAEB33FBEA2400F582EB34A0F583E0FAA3E0EB
:20036E00FBC3EA9CFAEB9DFB901048EAF0A3EBF02290104EE090104AF090104FE090104BEA
:20038E00F0120304901048E0FAA3E0FBC3EA33FAEB33FBEA2400F582EB34A0F583E0FAA3DA
:2003AE00E0FB90104CEAF0A3EBF022901052E0C0E0A3E0C0E0901050E090104AF0901051BE
:2003CE00E090104BF0120304901048E0FAA3E0FBC3EA33FAEB33FBEA2400F582EB34A0F5CF
:2003EE0083D0E0FAD0E0F0EAA3F022900005E0FAA3E0FBC3EA9400EB9408400B740190106E
:20040E001FF01202148032900005E004F07004A3E004F0901054E0FCA3E0FD900005E0FAD2
:20042E00A3E0FBC3EA33FAEB33FBEA2400F582EB34A0F583ECF0A3EDF022900005E0FCA3EF
:20044E00E0FD7A007B00C3EA9CEB9D5035900005E0FAA3E0FBC3EA33FAEB33FBEA2400F583
:20046E0082EB34A0F583E0FAA3E0FB901056EAF0A3EBF0900005E014F0047004A3E014F097
:20048E008009740090101FF01202142290100BE0FAA3E0FBEA240BF582EB3400F583E090BE
:2004AE001058F02290100BE0FAA3E0FBEA2402FAEB3400FBEA240BF582EB3400F583E0FC8A
:2004CE0090100BE0FAA3E0FBEA2401FAEB3400FBEA240BF582EB3400F583E0FBECFA901060
:2004EE0059EAF0A3EBF02290100BE0FAA3E0FBEA2401FAEB3400FBEA240BF582EB3400F551
:20050E0083E0FA7B0090105BEAF0A3EBF02290100BE0FAA3E0FBEA2402FAEB3400FBEA244B
:20052E000BF582EB3400F583E0FA7B0090105DEAF0A3EBF022120448901056E0FAA3E0FB1C
:20054E00901061EAF0A3EBF0120448901056E0FAA3E0FB901063EAF0A3EBF0901060E0B499
:20056E008021901061E0FCA3E0FD901063E0FAA3E0FBEA2CFAEB3DFB901065EAF0A3EBF084
:20058E000207DFB48622901061E0FCA3E0FD901063E0FAA3E0FBC3EA9CFAEB9DFB90106586
:2005AE00EAF0A3EBF00207DFB4882A901061E0FCA3E0FD901063E0FAA3E0FBC3EA9CFAEBA1
:2005CE009D4A600274FFF4FA7B00901065EAF0A3EBF00207DFB48D29901061E0FCA3E0FDDC
:2005EE00901063E0FAA3E0FBC3EA9CFAEB9D4A600274FFFA7B00901065EAF0A3EBF00207CD
:20060E00DFB4893C901063E0FAA3E0FB90212EEAF0A3EBF07402902130F0901061E0FAA31D
:20062E00E0FB902131EAF0A3EBF012257590212CE0FAA3E0FB901065EAF0A3EBF00207DF71
:20064E00B48A3C901063E0FAA3E0FB90212EEAF0A3EBF07401902130F0901061E0FAA3E0DC
:20066E00FB902131EAF0A3EBF012257590212CE0FAA3E0FB901065EAF0A3EBF00207DFB45D
:20068E008B3C901063E0FAA3E0FB90212EEAF0A3EBF07404902130F0901061E0FAA3E0FB51
:2006AE00902131EAF0A3EBF012257590212CE0FAA3E0FB901065EAF0A3EBF00207DFB48C8C
:2006CE003C901063E0FAA3E0FB90212EEAF0A3EBF07403902130F0901061E0FAA3E0FB900D
:2006EE002131EAF0A3EBF012257590212CE0FAA3E0FB901065EAF0A3EBF00207DFB48121C6
:20070E00901061E0FCA3E0FD901063E0FAA3E0FBEA5CFAEB5DFB901065EAF0A3EBF002072A
:20072E00DFB4821E901061E0FCA3E0FD901063E0FAA3E0FB122853901065EAF0A3EBF002D4
:20074E0007DFB4831D901061E0FCA3E0FD901063E0FAA3E0FB122858901065EAF0A3EBF0AA
:20076E00806FB4841D901061E0FCA3E0FD901063E0FAA3E0FB12283D901065EAF0A3EBF09B
:20078E00804FB48520901061E0FCA3E0FD901063E0FAA3E0FBEA4CFAEB4DFB901065EAF029
:2007AE00A3EBF0802CB48720901061E0FCA3E0FD901063E0FAA3E0FBEA6CFAEB6DFB9010AB
:2007CE0065EAF0A3EBF08009740290101FF0120214901065E0FAA3E0FB901054EAF0A3EBBF
:2007EE00F01203F990100BE004F07004A3E004F0740090105FF022901068E0B4A078120434
:20080E00F590105BE090104AF012051C90105DE090104BF0120304901048E0FAA3E0FB904C
:20082E001069EAF0A3EBF0901069E0FAA3E0FBC3EA33FAEB33FBEA2400F582EB34A0F583C9
:20084E00E0FAA3E0FBC3EA9401FCEB9400FDE582158270021583ECF0A3EDF090100BE0FA8F
:20086E00A3E0FBEA2403FAEB3400FB90100BEAF0A3EBF0020993B4A1771204F590105BE074
:20088E0090104AF012051C90105DE090104BF0120304901048E0FAA3E0FB901069EAF0A3A6
:2008AE00EBF0901069E0FAA3E0FBC3EA33FAEB33FBEA2400F582EB34A0F583E0FAA3E0FBE7
:2008CE00EA2401FCEB3400FDE582158270021583ECF0A3EDF090100BE0FAA3E0FBEA24036B
:2008EE00FAEB3400FB90100BEAF0A3EBF0020993B4A247900005E0FAA3E0FBC3EA33FAEBE6
:20090E0033FBEA2400F582EB34A0F583E0FAA3E0FBEAF4FAEBF4FBEA2401FCEB3400FDE5C9
:20092E0082158270021583ECF0A3EDF090100BE004F07004A3E004F0804BB4A33F900005CA
:20094E00E0FAA3E0FBC3EA33FAEB33FBEA2400F582EB34A0F583E0FAA3E0FBEAF4FCEBF471
:20096E00FDE582158270021583ECF0A3EDF090100BE004F07004A3E004F0800974029010FF
:20098E001FF01202147400901067F02290106CE0B4B03090100BE0FAA3E0FBEA2403FAEB0C
:2009AE003400FB901054EAF0A3EBF01203F91204B2901059E0FAA3E0FB90100BEAF0A3EB74
:2009CE00F08044B4B1381204F590105BE0FAA3E0FB90106DEAF0A3EBF090106DE0901093D5
:2009EE00F01213F790100BE0FAA3E0FBEA2402FAEB3400FB90100BEAF0A3EBF080097402B4
:200A0E0090101FF0120214740090106BF022901070E0B4C0161204B2901059E0FAA3E0FBCD
:200A2E0090100BEAF0A3EBF0020B4FB4C146120448901056E0FAA3E0FBC3EA9400FAEB9428
:200A4E00004A70151204B2901059E0FAA3E0FB90100BEAF0A3EBF0801890100BE0FAA3E0FD
:200A6E00FBEA2403FAEB3400FB90100BEAF0A3EBF0020B4FB4C25F120448901056E0C0E040
:200A8E00A3E0C0E0120448901056E0FAA3E0FBC3D0E0FDD0F0EA95F0FAEB9DFBC3EA94001C
:200AAE00FAEB94004A70151204B2901059E0FAA3E0FB90100BEAF0A3EBF0801890100BE0A1
:200ACE00FAA3E0FBEA2403FAEB3400FB90100BEAF0A3EBF0806BB4C35F120448901056E073
:200AEE00C0E0A3E0C0E0120448901056E0FAA3E0FBC3D0E0FDD0F0EA95F0FAEB9DFBC3EAB0
:200B0E009400FAEB94004A60151204B2901059E0FAA3E0FB90100BEAF0A3EBF080189010A7
:200B2E000BE0FAA3E0FBEA2403FAEB3400FB90100BEAF0A3EBF08009740290101FF012025A
:200B4E0014740090106FF0227400901071F0901072E0B4D015120448901056E0FAA3E0FB32
:200B6E0090100BEAF0A3EBF08073B4D167120448901056E0FAA3E0FB901073EAF0A3EBF06E
:200B8E001204F590105BE090104AF012051C90105DE090104BF0120304901048E0FAA3E03E
:200BAE00FBC3EA33FAEB33FBEA2400F582EB34A0F583E0FAA3E0FB901054EAF0A3EBF012C7
:200BCE0003F9901073E0FAA3E0FB90100BEAF0A3EBF08009740290101FF012021490100B1C
:200BEE00E0FAA3E0FBC3EA94FFFAEB94FF4A700C74FF900004F074FF901071F0229010766E
:200C0E00E0B4E048120448901056E0FAA3E0FB901077EAF0A3EBF0901077E0FAA3E0FB90F0
:200C2E001054EAF0A3EBF01203F9901077E0FAA3E0FB901054EAF0A3EBF01203F990100B68
:200C4E00E004F07004A3E004F0020E75B4E122120448901056E0FAA3E0FB901077EAF0A34B
:200C6E00EBF090100BE004F07004A3E004F0020E75B4E2311204B2901059E0FAA3E0FB902C
:200C8E001054EAF0A3EBF01203F990100BE0FAA3E0FBEA2403FAEB3400FB90100BEAF0A32C
:200CAE00EBF0020E75B4E3311204F590105BE0FAA3E0FB901054EAF0A3EBF01203F99010A6
:200CCE000BE0FAA3E0FBEA2402FAEB3400FB90100BEAF0A3EBF0020E75B4E4471204F5907D
:200CEE00105BE090104EF012051C90105DE090104FF012037F90104CE0FAA3E0FB90105402
:200D0E00EAF0A3EBF01203F990100BE0FAA3E0FBEA2403FAEB3400FB90100BEAF0A3EBF034
:200D2E00020E75B4E5471204F590105BE0901050F012051C90105DE0901051F0120448909B
:200D4E001056E0FAA3E0FB901052EAF0A3EBF01203B990100BE0FAA3E0FBEA2403FAEB3482
:200D6E0000FB90100BEAF0A3EBF0020E75B4E6028003020E6C1204F590105BE090107BF056
:200D8E0090107BE0FC7D0090100BE0FAA3E0FBEA2CFAEB3DFB901079EAF0A3EBF090107B0F
:200DAE00E02401C31390107DF090107BE05401C394007012901079E004F07004A3E004F03C
:200DCE0090107DE004F0740190107CF0901079E0FAA3E0FBEA2401FAEB3400FBEA240BF5F1
:200DEE0082EB3400F583E0FC901079E0FAA3E0FBEA240BF582EB3400F583E0FBECFA9010F7
:200E0E0054EAF0A3EBF01203F9901079E0FAA3E0FBC3EA9402FAEB9400FB901079EAF0A34C
:200E2E00EBF090107DE0FA90107CE0C39A600890107CE004F0809590107BE0FC7D009010F8
:200E4E000BE0FAA3E0FBEA2CFAEB3DFBEA2402FAEB3400FB90100BEAF0A3EBF080097402C8
:200E6E0090101FF01202147400901075F02290107FE0B4F0028003020F2E90100D74FFF07B
:200E8E00A37400F01204F590105BE0901084F090100DE0FAA3E0FB90A000EAF0A3EBF09026
:200EAE001084E0C3940060177AFF7B00901054EAF0A3EBF01203F9901084E014F080E0909C
:200ECE000007E0FA7B00901054EAF0A3EBF01203F9900008E0FAA3E0FB901054EAF0A3EB02
:200EEE00F01203F990000AE0FA7B00901054EAF0A3EBF01203F97AFF7BFF901054EAF0A339
:200F0E00EBF01203F990100BE0FAA3E0FBEA2402FAEB3400FB90100BEAF0A3EBF002116835
:200F2E00B4F10280030210381204F590105BE0901085F0901085E0540F901084F090108593
:200F4E00E0C313C313C313C313F090100DE0FAA3E0FB901080EAF0A3EBF0900005E0FAA3CC
:200F6E00E0FB90100DEAF0A3EBF0901080E0FAA3E0FB901054EAF0A3EBF01203F99010848D
:200F8E00E0FA7B00C3EA33FAEB33FBEA2400F582EB34A0F583E0FAA3E0FB901054EAF0A376
:200FAE00EBF01203F9901084E0FA7B00901054EAF0A3EBF01203F9901085E0FA7B0090104D
:200FCE0054EAF0A3EBF01203F912051C90105DE0FCA3E0FD900005E0FAA3E0FBEA2CFAEBD5
:200FEE003DFB900005EAF0A3EBF090100DE0FCA3E0FD901084E0FA7B00C3EA33FAEB33FB49
:20100E00EA2400F582EB34A0F583ECF0A3EDF090100BE0FAA3E0FBEA2403FAEB3400FB90F2
:20102E00100BEAF0A3EBF0021168B4F202800302115F90100DE0FAA3E0FBEA2403FAEB34E8
:20104E0000FBC3EA33FAEB33FBEA2400F582EB34A0F583E0901084F090100DE0FAA3E0FBDF
:20106E00EA2402FAEB3400FBC3EA33FAEB33FBEA2400F582EB34A0F583E0FCA3E0FD901093
:20108E0084E0FA7B00C3EA33FAEB33FBEA2400F582EB34A0F583ECF0A3EDF090100DE0FAD7
:2010AE00A3E0FBEA2404FAEB3400FBC3EA33FAEB33FBEA2400F582EB34A0F583E0901085CA
:2010CE00F090100DE0FAA3E0FB900005EAF0A3EBF090100DE0FAA3E0FBEA2401FAEB3400F3
:2010EE00FBC3EA33FAEB33FBEA2400F582EB34A0F583E0FAA3E0FB90100DEAF0A3EBF012C9
:20110E000448901056E0FAA3E0FB901082EAF0A3EBF0901085E0FC7D00900005E0FAA3E03D
:20112E00FBC3EA9CFAEB9DFB900005EAF0A3EBF0901082E0FAA3E0FB901054EAF0A3EBF02D
:20114E001203F990100BE004F07004A3E004F08009740290101FF0120214740090107EF0B1
:20116E002212049A901058E0901088F0901088E0FA748DC39AE4400114FAE0C39480E44031
:20118E0001145A6016901088E0901060F012054390105FE0901087F00212DA901088E0FA24
:2011AE0074A3C39AE4400114FAE0C394A0E44001145A6016901088E0901068F012080590EB
:2011CE001067E0901087F00212DA901088E0FA74B1C39AE4400114FAE0C394B0E4400114CE
:2011EE005A6016901088E090106CF012099A90106BE0901087F00212DA901088E0FA74C32F
:20120E00C39AE4400114FAE0C394C0E44001145A6016901088E0901070F0120A1C90106FE1
:20122E00E0901087F00212DA901088E0FA74D1C39AE4400114FAE0C394D0E44001145A60EA
:20124E0015901088E0901072F0120B56901071E0901087F08076901088E0FA74E6C39AE453
:20126E00400114FAE0C394E0E44001145A6015901088E0901076F0120C0B901075E0901026
:20128E0087F08048901088E0FA74F2C39AE4400114FAE0C394F0E44001145A6015901088B2
:2012AE00E090107FF0120E7C90107EE0901087F0801A901088E0C39400700874AA901087CA
:2012CE00F08009740290101FF01202142290100B7400F0A37400F090108AE0900007F090E1
:2012EE00108CE0FAA3E0FB900008EAF0A3EBF090108EE090000AF07400900004F012116FDA
:20130E00901087E0C3940060F4900004E0601F80144E6F726D616C20656E64206F6620654C
:20132E0076656E740075311F7532131222AD7400901089F02212018E901017E0901092F079
:20134E009000057400F0A37400F09010907400F0A37400F07C007D00901090E0FAA3E0FB63
:20136E00C3EA33FAEB33FBEA2400F582EB34A0F583ECF0A3EDF0901090E0FAA3E0FBC3EA1F
:20138E009400FAEB94084A600E901090E004F07004A3E004F080BD7A0B7B00901015EAF0B7
:2013AE00A3EBF07458901119F0901015E0FAA3E0FB90111AEAF0A3EBF0901013E0FAA3E0FB
:2013CE00FBEA2402FAEB3400FB90111CEAF0A3EBF01221CB901118E0600874FF901012F0B7
:2013EE0080067400901012F0227400901096F09010947400F0A37400F0901093E0B40040E1
:20140E008011446973706C6179496E74656765723A20007531107532141222EA12044890B2
:20142E001056E0FAA3E0FB901097EAF0A3EBF0901097E0FAA3E0FB8A388B391221618029FF
:20144E00B401051215758021B4020512155A8019B403051215988011B4040512159C80099D
:20146E00740390101FF0120214901096E0C394006013901094E0FAA3E0FB901054EAF0A333
:20148E00EBF01203F922120448901056E0FAA3E0FB90109BEAF0A3EBF090109BE0FAA3E05C
:2014AE00FBEB90109EF090109BE0FA901099E0C0E0A3E0F583D0E0F582EAF0740190109D8E
:2014CE00F090109EE0FA90109DE0C39A5062120448901056E0FAA3E0FB90109BEAF0A3EB7B
:2014EE00F090109BE0FAA3E0FBEBFE90109DE0FC7D00901099E0FAA3E0FBEA2CF582EB3D96
:20150E00F583EEF090109DE004F090109BE0FE90109DE0FC7D00901099E0FAA3E0FBEA2C00
:20152E00F582EB3DF583EEF090109DE004F080917E0090109EE0FC7D00901099E0FAA3E0DB
:20154E00FBEA2CF582EB3DF583EEF0227A9F7B10901099EAF0A3EBF01214947A9F7B108A38
:20156E00318B3212231922120448901056E0FAA3E0FB9010D1EAF0A3EBF09010D1E0FAA39C
:1E158E00E0FB8A388B3912216122121EC9227AB87B7A901054EAF0A3EBF01203F9226A
:2019D600901109E0F5DBD296D297D2ADC2BDD2AFC20275D8C5C20022C082C083C0E0C0F0B8
:2019F600C0D0D2D3C2D4C2AFE5D9B400183003077400F54012211475D8D5C20074FF9011E9
:201A160008F0021CDBB408183003077408F540122114D200901106E0F5DA75D8C5021CDB86
:201A3600B410183003077410F540122114D200901106E0F5DA75D8C5021CDBB41830300318
:201A5600077418F54012211474009010EFF09010EFE0FA7B00EA24F0F582EB3410F583E08E
:201A7600F5DA75D8C59010EFE004F0021CDBB420183003077420F54012211475D8D5C200F9
:201A96007401901108F0021CDBB4284B3003077428F5401221149010EEE0FA9010EFE0C316
:201AB6009A7014300202800D75D8D57400901108F0C202C200801D9010EFE0FA7B00EA24ED
:201AD600F0F582EB3410F583E0F5DA75D8C59010EFE004F0021CDBB430183003077430F5F6
:201AF6004012211475D8D5C2007402901108F0021CDBB438163003077438F5401221147584
:201B1600D8E574009010EFF0021CDBB440103003077440F54012211475D8C5021CDBB44891
:201B3600183003077448F54012211475D8D5C2007401901108F0021CDBB4503D300307742B
:201B560050F540122114ACDA9010F5E0FA7B00EA24F6F582EB3410F583ECF09010F5E004BC
:201B7600F09010F4E0FA9010F5E0C39A700575D8C1800375D8C5021CDBB4582D3003077427
:201B960058F540122114ACDA9010F5E0FA7B00EA24F6F582EB3410F583ECF075D8D5C20009
:201BB6007400901108F0021CDBB4600ED20075D8C57400901101F0021CDBB4680E75D8E5A8
:201BD600D2007400901101F0021CDBB4700E75D8C5D2007400901101F0021CDBB4780E755A
:201BF600D8E5D2007400901101F0021CDBB4802FACDA901101E0FA7B00EA2402F582EB34BB
:201C160011F583ECF0901101E004F0901101E0C39404700575D8C1800375D8C5021CDBB431
:201C3600880E75D8D5C2007403901108F0021CDBB49028ACDA901101E0FA7B00EA2402F51D
:201C560082EB3411F583ECF0901101E004F075D8D5C2007404901108F0806AB4980575D875
:201C7600C58062B4A00575D8C5805AB4A80575D8C58052B4B01F9010FBE0FA7B00EA24FCA0
:201C9600F582EB3410F583E0F5DA9010FBE004F075D8E58030B4B81F9010FBE0FA7B00EAAB
:201CB60024FCF582EB3410F583E0F5DA9010FBE004F075D8C5800EB4C00575D8C58006B44D
:121CD600C80375D8C5D2AFD0D0D0F0D0E0D083D08232B7
:03002B000219EEC9
:2015AC007411901109F01219D6C203C202C2007AE37B578A238B24121EAD12167D1216E996
:2015CC0074709010D3F07AD37B109010E0EAF0A3EBF074169010E2F074FF9010E3F01217FD
:2015EC00597AD37B109010E4EAF0A3EBF07A007B009010E6EAF0A3EBF074FF9010E8F01202
:20160C00180C2274789010DCF074009010DDF012170874789010DCF09010D8E0FA9010D7ED
:20162C00E02A9010DDF012170874789010DCF074009010DDF01217082274789010DCF0749E
:20164C00009010DDF012170874789010DCF09010DAE0FA9010D9E024102A9010DDF01217E7
:20166C000874789010DCF074009010DDF01217082274009010DBF074789010DCF09010DB18
:20168C00E09010DDF01217089010DBE0C3940F60089010DBE004F080DE74789010DCF09002
:2016AC0010DBE044609010DDF012170874789010DCF09010DBE09010DDF01217082274200A
:2016CC009010D7F074049010D8F012160F74209010D9F074059010DAF012164522742090ED
:2016EC0010D7F074059010D8F012160F74209010D9F074049010DAF0121645222000FDC2A2
:20170C0002D2009010DCE0901106F074019010EEF09010DDE09010F0F0D2DD222000FDC276
:20172C0002D2009010DFE02401901106F074019010F4F074009010F5F0D2DD2000FDE5D833
:20174C00541070FA9010F6E09010DEF0229010E3E0601B7C007D009010E0E0FAA3E0FBEA10
:20176C002402F582EB3400F583ECF0A3EDF09010E2E0FC9010E0E0FAA3E0FBEA2401F58211
:20178C00EB3400F583ECF02000FDC202D2009010E0E0C0E0A3E0F583D0E0F582E09011066E
:2017AC00F074049010EEF074009010EFF074009010F0F09010E0E0FAA3E0FBEA2401F582F2
:2017CC00EB3400F583E09010F1F09010E0E0FAA3E0FBEA2402F582EB3400F583E09010F39C
:2017EC00F09010E0E0FAA3E0FBEA2402F582EB3400F583E0FAA3E0FBEB9010F2F0D2DD2261
:20180C002000FDC202D2009010E4E0C0E0A3E0F583D0E0F582E0901106F074049010EEF076
:20182C0074009010EFF074009010F0F09010E4E0FAA3E0FBEA2401F582EB3400F583E0904C
:20184C0010F1F09010E8E0B4FF479010E4E0FAA3E0FBEA2402F582EB3400F583E0FA9010B5
:20186C00E6E04A9010F3F09010E4E0FAA3E0FBEA2402F582EB3400F583E0FAA3E0FBEBFC90
:20188C009010E6E0FAA3E0FBEB4C9010F2F0021966B4004B9010E4E0FAA3E0FBEA2402F544
:2018AC0082EB3400F583E0FA9010E6E064FF5A9010F3F09010E4E0FAA3E0FBEA2402F58220
:2018CC00EB3400F583E0FAA3E0FBEBFC9010E6E0FAA3E0FBEB64FF5C9010F2F0021966B4E7
:2018EC0055179010E6E09010F3F09010E6E0FAA3E0FBEB9010F2F08061B4F00A9010E6E047
:20190C009010F2F08054B40F0A9010E6E09010F3F08047B4AA449010E4E0FAA3E0FBEA245C
:20192C0002F582EB3400F583E0FA9010E6E06A9010F3F09010E4E0FAA3E0FBEA2402F582FB
:20194C00EB3400F583E0FAA3E0FBEBFC9010E6E0FAA3E0FBEB6C9010F2F09010F3E0FA90F1
:20196C0010F2E0FBEAFCEBFD9010E4E0FAA3E0FBEA2402F582EB3400F583ECF0A3EDF0D288
:20198C00DD222000FDC202D2009010EAE0C0E0A3E0F583D0E0F582E02401901106F074014C
:2019AC009010F4F074009010F5F0D2DD2000FDE5D8541070FA9010F6E0600874FF9010E96D
:0A19CC00F0800674009010E9F0228C
:201CE80075330075340075320112206DE52AF524121ED8AC237D00AA33AB34C3EA33FAEB47
:201D080033FBC3EA33FAEB33FBC3EA33FAEB33FBC3EA33FAEB33FBEA2CFAEB3DFB8A338B39
:201D280034E532C394026004053280BDE533F53122121CE8E531F53A121CE8E531F53BAB5D
:201D48003AAA3B8A388B392290110A7400F0A37400F07400901114F0740090110FF09011D0
:201D68000FE0C394006003021E9312206DE52AC3943A6003021E8A121CE8E531901110F0E6
:201D8800901110E0FA901114E02AF0121D39AA38AB39901111EAF0A3EBF0901111E0FA90AD
:201DA8001114E02AF0901111E0FAA3E0FBEBFA901114E02AF0121CE8E53190110FF09011F1
:201DC8000FE0FA901114E02AF090110FE0C394006003021E5F901110E06057121CE8E53126
:201DE800901113F090110DE0FCA3E0FD901111E0FAA3E0FBEA2CFAEB3DFB8A238B249011F3
:201E080013E0F52512229B90110AE004F07004A3E004F0901113E0FA901114E02AF0901196
:201E280010E014F0901111E004F07004A3E004F080A3121CE8AA31901114E02AF0121CE85C
:201E4800E531901113F0901114E0C394006006740490110FF08029121CE8AA31901114E027
:201E68002AF0121CE8E531901113F0740190110FF0901114E0C394006006740290110FF0F3
:201E88008006740390110FF0021D6690110FE0C39401600A90110FE090110CF0800674009F
:051EA80090110CF02276
:20274300E524C3947FE4500114FA741FC39524E45001145A6006E524F523800375232E22B0
:20276300752401E5235401FC7D00AA41AB42EA5401FAEB5400FBEA6CFAEB6DFBC3EA9400B7
:20278300FAEB94004A600274FFF525E523C313F523AA41AB42C3EB13FBEA13FA8A418B426B
:2027A300E5256010AA41AB42EA6408FAEB6484FB8A418B42E524C394086004052480A422D3
:201EAD00AA23AB24EAF4FAEBF4FBEA4B600AE52315237002152480E82280FE22740DF52A73
:201ECD00122173740AF52A12217322E524C3943AE4500114FA742FC39524E45001145A60EB
:201EED0009E524C39430F5238041E524C39447E4500114FA7440C39524E45001145A60093D
:201F0D00E524C39437F5238022E524C39467E4500114FA7460C39524E45001145A6009E518
:111F2D0024C39457F523800375230022E523F53F221E
:2027C300AA24AB258A268B27852682852783E493F52322E524F526A926E7F52322AA24AB5C
:2027E300258A268B27852682852783E0F52322E5894420F589E523F58D759850D2BCD299A9
:20280300D28E22E5894420F589E523F58D7598F0D2BCD299D28E223098FDC298E599F5232C
:1A282300223099FDC299E523F599223098057523FF800375230022C2982283
:201F3E00E53BC394007003753B10AA39AB3AEA54F0FAEB54FFFB8A398B3AE538B443028092
:201F5E0008B444028003B4580280037538447400C3953B4003022069AA39AB3AC3EA94007E
:201F7E00FAEB94004A70107400F5311220C57400F5311220C58011AA39AB3AEBF531122042
:201F9E00C5E539F5311220C57420F52A122173E538F52A1221737420F52A122173753C00DE
:201FBE00E538F52BAA39AB3AEA253CFAEB3400FB8A2C8B2D122259E52AF53DE53DF5311209
:201FDE0020C57420F52A122173E53CC39407700E742DF52A1221737420F52A122173E53CC8
:201FFE00C3940F6004053C80B77420F52A122173753C00E538F52BAA39AB3AEA253CFAEB42
:20201E003400FB8A2C8B2D122259E52AF53DE53DF524122743E523F53DE53DF52A1221735F
:20203E00E53CC3940F6004053C80C8AA39AB3AEA253CFAEB3400FBEA2401FAEB3400FB8A3A
:20205E00398B3A153B121EC9021F6C121EC922E53FB400028050B401028003B40109122897
:20207E001AE523F52A803FB4030B12253490212BE0F52A8031B4040B120000900000E0F54F
:20209E002A8023B4050B120000900000E0F52A8015B4060B120000900000E0F52A8007125C
:2020BE00281AE523F52A22749FC395315013E531C313C313C313C3132437F52A122173806A
:2020DE0011E531C313C313C313C3132430F52A122173E531540FFA7409C39A500DE5315436
:2020FE000F2437F52A122173800BE531540F2430F52A122173223099FDC299749FC3954088
:20211E005010E540C313C313C313C3132437F599800EE540C313C313C313C3132430F599EE
:20213E003099FDC299E540540FFA7409C39A500AE540540F2437F5998008E540540F2430D5
:20215E00F59922AA38AB39EBF5311220C5E538F5311220C522E53FB400028050B4010280A6
:20217E0003B40109E52AF523122824803FB4030BE52A902129F01224B88031B4040BE52A30
:20219E00900000F01200008023B4050BE52A900000F01200008015B4060BE52A900000F09E
:2021BE001200008007E52AF523122824227541FF7542FF90111CE0FAA3E0FBEA4B603F90DD
:2021DE001119E0F52B90111AE0FAA3E0FB8A2C8B2D122259E52A90111EF090111EE0F52334
:2021FE0012276390111AE004F07004A3E004F090111CE014F0047004A3E014F080B5AA41EB
:20221E00AB42C3EA94B8FAEB94F04A700874FF901118F080067400901118F022752700AA68
:20223E0024AB25EA2526F582EB3400F583E060060527052680E9E527F52322E52BB45811D0
:20225E00AA2CAB2D8A248B251227E0E523F52A802BB44411AA2CAB2D8A248B251227D6E560
:20227E0023F52A8017B44311AA2CAB2D8A248B251227C3E523F52A8003752A0022AA23AB74
:20229E00248A268B27E525852682852783F022753300AA31AB32EA2533F582EB3400F58372
:2022BE00E4936019AA31AB32EA2533F582EB3400F583E493F52A122173053380D5740DF5C9
:2022DE002A122173740AF52A12217322753300AA31AB32EA2533F582EB3400F583E4936024
:2022FE0019AA31AB32EA2533F582EB3400F583E493F52A122173053380D522753300AA3131
:20231E00AB32EA2533F582EB3400F583E06018AA31AB32EA2533F582EB3400F583E0F52A13
:20233E00122173053380D722E5894420F589E523F58D759850D2BCC299C298D2AFD2ACD2DD
:20235E008E90211F7400F0A37400F09021217400F0A37400F09021237400F0A37400F0908A
:20237E0021257400F0A37400F074FF902127F022C082C083C0E0C0F0C0D0C2D3D2D4C2AF20
:20239E0030995DC2997400902127F0902121E0FCA3E0FD90211FE0FAA3E0FBC3EA9CFAEBDE
:2023BE009D4A603690211FE0FAA3E0FBEA241FF582EB3411F583E0F59990211FE0FAA3E073
:2023DE00FBEA2401FAEB3400FB7C007D0812285890211FEAF0A3EBF0800674FF902127F045
:2023FE00309867C298902123E0C0E0A3E0C0E0902125E0FAA3E0FBEA2401FAEB3400FB7CF2
:20241E00007D08122858C3D0E0FDD0F0EA95F0FAEB9D4A6035AC99902125E0FAA3E0FBEA2A
:20243E00241FF582EB3419F583ECF0902125E0FAA3E0FBEA2401FAEB3400FB7C007D0812D4
:20245E002858902125EAF0A3EBF0D2AFD0D0D0F0D0E0D083D08232C2AC90211FE0C0E0A3E7
:20247E00E0C0E0902121E0FAA3E0FBEA2401FAEB3400FB7C007D08122858C3D0E0FDD0F0AE
:20249E00EA95F0FAEB9D4A700874FF902128F080067400902128F0D2AC2212247590212848
:2024BE00E0C394FF60F4902129E0FC902121E0FAA3E0FBEA241FF582EB3411F583ECF090DC
:2024DE002121E0FAA3E0FBEA2401FAEB3400FB7C007D08122858902121EAF0A3EBF09021B3
:2024FE0027E0C394FF7002D29922C2AC902125E0FCA3E0FD902123E0FAA3E0FBC3EA9CFA53
:20251E00EB9D4A7008740090212AF0800674FF90212AF0D2AC2212250890212AE0F470F65C
:20253E00902123E0FAA3E0FBEA241FF582EB3419F583E090212BF0902123E0FAA3E0FBEA3B
:17255E002401FAEB3400FB7C007D08122858902123EAF0A3EBF0224C
:0300230002238E27
:20257500902131E0FAA3E0FBEA5400FAEB5480FB902135EAF0A3EBF090212EE0FAA3E0FBA5
:20259500EA5400FAEB5480FB902137EAF0A3EBF0902131E0FCA3E0FD90212EE0FAA3E0FB7F
:2025B500C3EA9CFAEB9DFB902133EAF0A3EBF0902133E0FAA3E0FBC3EA9400FAEB94004AC4
:2025D500700C90213D7401F0A37400F0800A90213D7400F0A37400F0902133E0FAA3E0FBF1
:2025F500EA5400FAEB5480FB902139EAF0A3EBF0902139E0FEA3E0FF902135E0FCA3E0FD06
:20261500902137E0FAA3E0FBEAF4FAEBF4FBEA5CFAEB5DFBEA5EC0E0EB5FC0E0902139E094
:20263500FAA3E0FBEAF4FEEBF4FF902135E0FAA3E0FBEAF4FCEBF4FD902137E0FAA3E0FB1F
:20265500EA5CFAEB5DFBEA5EFAEB5FFBD0E0FDD0F0EA45F0FAEB4DFB90213BEAF0A3EBF05E
:20267500902130E0B4014090213BE0FCA3E0FD902139E0FAA3E0FBEA6CFCEB6DFD90213D70
:20269500E0FAA3E0FBEA4CFAEB4DFBC3EA9400FAEB94004A600274FFF4FA7B0090212CEA61
:2026B500F0A3EBF0022742B4023190213BE0FCA3E0FD902139E0FAA3E0FBEA6CFAEB6DFB18
:2026D500C3EA9400FAEB94004A600274FFF4FA7B0090212CEAF0A3EBF08052B40320902114
:2026F5003BE0FCA3E0FD902139E0FAA3E0FBEA6CFAEB6DFB90212CEAF0A3EBF0802FB404AD
:202715002C90213BE0FCA3E0FD902139E0FAA3E0FBEA6CFCEB6DFD90213DE0FAA3E0FBEA17
:0E2735004CFAEB4DFB90212CEAF0A3EBF022C6
:20283D00EA8CF0A4FEAFF0EA8DF0A42FFFEC8BF0A42FFBEEFA2275F000800375F0FFEC4DD7
:20285D0070067EFF7FFF80397901ED20E70B09C3EC33FCED33FD30E7F57E007F00C3EA9C62
:20287D00FAEB9DFB5009EA2CFAEB3DFBC38001D3EE33FEEF33FFC3ED13FDEC13FC19E970AE
:0A289D00DCE5F07004EEFAEFFB2218
:00000001FF
